:060000000A128A110C280F
:10000800FE00030EF1000A08F2000A128A115928AC
:100018000A128A110F280A128A1186200A128A11D6
:10002800F400F30183010A128A117D28831603174D
:10003800880189018316031386018312031386013D
:100048008316031388018312031388012030831653
:1000580003138500831203138501831603130F0806
:100068008F3940388F000F1418308700831203131C
:1000780087011408F0390438940014129416831672
:10008800031314179413831203138C118316031389
:100098008C158B170B178B15161496140B1006144A
:1000A80086148113151495140800831203138C1DEC
:1000B8005E285F286228740893008C110B1C652841
:1000C80066287628061869286A286F280130F00003
:1000D8007008F40775288618722873287528013067
:1000E800F4020B1072088A00710E8300FE0E7E0E59
:1000F80009000A128A111A200A128A1182280A1281
:060108008A110C28FF34EF
:08400000FF3FFF3FFF3FFF3FC0
:04400E00D420FF3F7C
:00000001FF
